:100000000C9462000C948A000C948A000C948A0070
:100010000C948A000C948A000C948A000C948A0038
:100020000C948A000C948A000C948A000C948A0028
:100030000C948A000C948A000C948A000C948A0018
:100040000C94C9020C948A000C9439030C94130389
:100050000C948A000C948A000C948A000C948A00F8
:100060000C948A000C948A000000000024002700F1
:100070002A0000000000250028002B0000000000DE
:1000800023002600290004040404040404040202DA
:100090000202020203030303030301020408102007
:1000A0004080010204081020010204081020000012
:1000B0000008000201000003040700000000000027
:1000C00000009B0511241FBECFEFD8E0DEBFCDBFDF
:1000D00011E0A0E0B1E0ECEFFBE002C005900D9272
:1000E000AA31B107D9F723E0AAE1B1E001C01D921E
:1000F000AF34B207E1F710E0C2E6D0E004C02197C8
:10010000FE010E94EA05C136D107C9F70E946B03C0
:100110000C94FC050C940000CF92DF92EF92FF92BA
:100120000F931F93CF93DF936C017A018B01C0E093
:10013000D0E0CE15DF0589F0D8016D918D01D60193
:10014000ED91FC910190F081E02DC6010995892B7C
:1001500011F47E0102C02196ECCFC701DF91CF914F
:100160001F910F91FF90EF90DF90CF900895089529
:1001700080E090E00895FC01538D448D252F30E000
:10018000842F90E0821B930B541710F0CF960895A4
:1001900001970895FC01918D828D981761F0828DF1
:1001A000DF01A80FB11D5D968C91928D9F5F9F73AB
:1001B000928F90E008958FEF9FEF0895FC01918D4D
:1001C000828D981731F0828DE80FF11D858D90E0BA
:1001D00008958FEF9FEF0895FC01918D228D892F57
:1001E00090E0805C9F4F821B91098F73992708953F
:1001F00082EB92E00E94EC0021E0892B09F420E0E0
:10020000822F0895FC01848DDF01A80FB11DA35A30
:10021000BF4F2C91848D90E001968F739927848F26
:10022000A689B7892C93A089B1898C9180648C931D
:10023000938D848D981306C00288F389E02D808108
:100240008F7D80830895EF92FF920F931F93CF933A
:10025000DF93EC0181E0888F9B8D8C8D981305C016
:10026000E889F989808185FD24C0F62E0B8D10E088
:100270000F5F1F4F0F731127E02E8C8DE8120CC0FB
:100280000FB607FCFACFE889F989808185FFF5CFA1
:10029000CE010E940201F1CF8B8DFE01E80FF11D0E
:1002A000E35AFF4FF0820B8FEA89FB8980818062DD
:1002B00007C0EE89FF896083E889F98980818064BD
:1002C000808381E090E0DF91CF911F910F91FF90AB
:1002D000EF900895CF93DF93EC01888D8823C9F0C8
:1002E000EA89FB89808185FD05C0A889B9898C913F
:1002F00086FD0FC00FB607FCF5CF808185FFF2CFDA
:10030000A889B9898C9185FFEDCFCE010E940201A9
:10031000E7CFDF91CF91089580E090E0892B29F01D
:100320000E94F80081110C9400000895833081F040
:1003300028F4813099F08230A1F008958730A9F037
:100340008830B9F08430D1F4809180008F7D03C073
:10035000809180008F7780938000089584B58F7797
:1003600002C084B58F7D84BD08958091B0008F77E1
:1003700003C08091B0008F7D8093B00008951F93DB
:10038000CF93DF93282F30E0F901E255FF4F84919E
:10039000F901E656FF4FD491F901EA57FF4FC49196
:1003A000CC23C9F0162F81110E949601EC2FF0E0AA
:1003B000EE0FFF1FEE58FF4FA591B4918FB7F89441
:1003C000111105C09C91ED2FE095E92302C0EC913D
:1003D000ED2BEC938FBFDF91CF911F910895CF93B9
:1003E000DF9390E0FC01E656FF4F2491FC01EA57B1
:1003F000FF4F8491882361F190E0880F991FFC01E1
:10040000E859FF4FC591D491FC01EE58FF4FA591DB
:10041000B491611109C09FB7F89488812095822317
:100420008883EC912E230BC0623061F49FB7F8945F
:100430003881822F809583238883EC912E2B2C93F7
:100440009FBF06C08FB7F894E8812E2B28838FBFFB
:10045000DF91CF910895009769F0FC010190002091
:10046000E9F73197AF01481B590BBC0182EB92E0D1
:100470000C948C0080E090E008950E94F0058F922B
:100480009F92AF92BF92CF92DF92EF92FF92CF9363
:10049000DF93CDB7DEB7A1970FB6F894DEBF0FBEDE
:1004A000CDBFF82E6B0182E191E00E942B02E0911A
:1004B000B202F091B3020190F081E02D6F2D82EB3A
:1004C00092E0099585E191E00E942B020D2C000C31
:1004D000EE08FF08F7FE2BC0E091B202F091B302E4
:1004E0000190F081E02D6DE282EB92E009952227E8
:1004F0003327A9012C193D094E095F0919A2CE0124
:1005000081967C019AE0892E912CA12CB12CCA01F4
:10051000B901A50194010E94C805605DF7016293CD
:100520007F01211531054105510589F71AC0A70141
:10053000960119A2CE0181967C018AE0882E912C29
:10054000A12CB12CCA01B901A50194010E94C805D2
:10055000605DF70162937F01211531054105510569
:1005600089F7C7010E942B0287E191E00E942B02CC
:10057000A1960FB6F894DEBF0FBECDBFDF91CF912D
:10058000FF90EF90DF90CF90BF90AF909F908F90B3
:1005900008951F920F920FB60F9211242F933F933D
:1005A0008F939F93AF93BF938091AE029091AF02D0
:1005B000A091B002B091B1023091AD0223E0230FBF
:1005C0002D3720F40196A11DB11D05C026E8230F8B
:1005D0000296A11DB11D2093AD028093AE029093AF
:1005E000AF02A093B002B093B1028091A9029091A2
:1005F000AA02A091AB02B091AC020196A11DB11D5F
:100600008093A9029093AA02A093AB02B093AC028C
:10061000BF91AF919F918F913F912F910F900FBEFE
:100620000F901F9018951F920F920FB60F921124E2
:100630002F933F934F935F936F937F938F939F93EA
:10064000AF93BF93EF93FF9382EB92E00E9402017E
:10065000FF91EF91BF91AF919F918F917F916F919A
:100660005F914F913F912F910F900FBE0F901F9070
:1006700018951F920F920FB60F9211242F938F93FC
:100680009F93EF93FF93E091C202F091C3028081A8
:10069000E091C802F091C90282FD12C09081809160
:1006A000CB028F5F8F732091CC02821751F0E091C3
:1006B000CB02F0E0EE54FD4F958F8093CB0201C04A
:1006C0008081FF91EF919F918F912F910F900FBE9D
:1006D0000F901F901895789484B5826084BD84B57E
:1006E000816084BD85B5826085BD85B5816085BD2D
:1006F00080916E00816080936E00109281008091E5
:10070000810082608093810080918100816080936C
:100710008100809180008160809380008091B10091
:1007200084608093B1008091B00081608093B000BC
:1007300080917A00846080937A0080917A00826050
:1007400080937A0080917A00816080937A00809112
:100750007A00806880937A001092C100E091C20212
:10076000F091C30282E08083E091BE02F091BF026B
:100770001082E091C002F091C10280E1808310926A
:10078000CA02E091C602F091C70286E08083E09140
:10079000C402F091C502808180618083E091C4022F
:1007A000F091C502808188608083E091C402F0915D
:1007B000C502808180688083E091C402F091C50207
:1007C00080818F7D808380E091E0909320018093F1
:1007D0001F0101E01AE082EB92E00E94EC00181683
:1007E00019060CF057C082EB92E00E94CA00809379
:1007F0001C018B3509F040C082EB92E00E94EC00B6
:10080000892BD1F382EB92E00E94CA0080931C01F5
:1008100010921B0110921A01C0911C0182EB92E010
:100820000E94EC0020911F01309120018217930754
:10083000FCF4CD35E9F082EB92E00E94EC00181652
:10084000190654F7E0901A01F0901B01F701E755E3
:10085000FE4FC08382EB92E00E94CA0080931C018D
:100860008FEFE81AF80AF0921B01E0921A01D4CF38
:1008700082EB92E00E946A0182EB92E00E946A01A0
:100880000093A60180911A0190911B019093A801F9
:100890008093A7018091A601882309F449C140E80B
:1008A00050E060E370E084E291E00E94F505A091E1
:1008B000A701B091A80180E090E0F0E030E0C090A6
:1008C0001D01D0901E0120E08A179B070CF043C049
:1008D000AC0147555E4FEA0168816132C1F1019672
:1008E000683291F74F2F532F7A01EE0CFF1C60E016
:1008F00070E0F42F352FEC01C755DE4F5E01E88123
:10090000E93211F3F501C12CD12CCF01895A914064
:1009100031913C3279F0393269F01C9D50011D9DB6
:10092000B00C1124832F330F990BC0976501C80EAB
:10093000D91EEBCFFB01EE0DFF1DEC5DFE4FD1820A
:10094000C08201964F5F5F4F6E5F7F4FD2CFEA014B
:1009500029810296B9CF9093A5018093A401D092EA
:100960001E01C0921D01F0932201309323012093B8
:100970002101233649F12CF4213661F02236C1F0F1
:10098000CBC0253609F4A9C00CF47EC02A3709F47F
:10099000BEC0C2C08091260190912701892B11F41D
:1009A00061E001C060E0809124010E94EF01AFC0CE
:1009B0008091260190912701892B11F460E001C0FC
:1009C00061E08091240116C0E0902601F09027019B
:1009D000C0902401D090250161E08C2D0E94EF0190
:1009E000E114F10409F44EC0DFEFED16F10429F42F
:1009F00061E08C2D0E94BF018AC0F601FF27E255FD
:100A0000FF4FE491E330F9F048F4E130B9F0E2301F
:100A1000A1F584B5806284BDE8BC79C0E730E9F017
:100A2000E83019F1E43049F58091800080628093CC
:100A30008000F0928B00E0928A0069C084B58068E3
:100A400084BDE7BC64C08091800080688093800092
:100A5000F0928900E09288005AC08091B0008068CE
:100A60008093B000E092B30052C08091B0008062E9
:100A70008093B000E092B4004AC080E8E816F10428
:100A80000CF0B6CF60E0B5CF209124013091250164
:100A90003327F901E255FF4F8491F901E656FF4FE4
:100AA000F490F901EA57FF4FC491CC2391F08111E2
:100AB0000E949601EC2FF0E0EE0FFF1FE458FF4F6D
:100AC000A591B491EC91EF2161E070E021F460E038
:100AD00002C060E070E084E41DC0809124018E308B
:100AE00008F08E508770806480937C0080917A003B
:100AF000806480937A0080917A0086FDFCCF6091BB
:100B000078008091790070E0782B85E403C061E083
:100B100070E081E40E943F0240911F01509120014A
:100B200060E070E089EA91E00E94F5051092A6016C
:100B30000E948C0150CEE2EBF2E01382128288EE2A
:100B400093E0A0E0B0E084839583A683B78384E03C
:100B500091E09183808385EC90E09587848784EC95
:100B600090E09787868780EC90E0918B808B81EC7A
:100B700090E0938B828B82EC90E0958B848B86EC5B
:100B800090E0978B868B118E128E138E148E0895A3
:100B9000A1E21A2EAA1BBB1BFD010DC0AA1FBB1F81
:100BA000EE1FFF1FA217B307E407F50720F0A21BF3
:100BB000B30BE40BF50B661F771F881F991F1A9460
:100BC00069F760957095809590959B01AC01BD018A
:100BD000CF010895EE0FFF1F0590F491E02D0994C9
:100BE00081E090E0F8940C94FC05DC0101C06D9369
:0C0BF00041505040E0F70895F894FFCF0A
:100BFC000000000023018C00BB006A01EC00CA005D
:0A0C0C00DE005B21002800295D00D6
:00000001FF
